:100000000C9404010C942C010C942C010C942C01E4
:100010000C942C010C942C010C942C010C942C01AC
:100020000C942C010C942C010C942C010C942C019C
:100030000C942C010C942C010C942C010C942C018C
:100040000C94FE050C942C010C94CC050C94A60584
:100050000C942C010C942C010C942C010C942C016C
:100060000C942C010C942C010000000800020100EB
:100070000003040700000000000000002A2A2A20D4
:1000800050524553532027542720746F20626567D0
:10009000696E207472616E736D697474696E672025
:1000A000746F20746865206F74686572206E6F6469
:1000B0006500524632342F6578616D706C65732F20
:1000C00047657474696E6753746172746564002A5D
:1000D0002A2A204348414E47494E4720544F205238
:1000E00045434549564520524F4C45202D2D205023
:1000F000524553532027542720544F2053574954D7
:100100004348204241434B002A2A2A204348414E7B
:1001100047494E4720544F205452414E534D495465
:1001200020524F4C45202D2D20505245535320270F
:10013000522720544F2053574954434820424143AB
:100140004B0053656E7420726573706F6E7365201B
:1001500000206D6963726F7365636F6E6473002C4A
:1001600020526F756E642D747269702064656C61C5
:100170007920002C20476F7420726573706F6E7346
:1001800065200053656E7420004661696C65642CBF
:1001900020726573706F6E73652074696D6564207D
:1001A0006F75742E006661696C6564004E6F772010
:1001B00073656E64696E670000000000250028000A
:1001C0002B0000000000240027002A00040404047F
:1001D00004040404020202020202030303030303F1
:1001E00001020408102040800102040810200102CE
:1001F000040810201112131415160A0B0C0D0E0F03
:10020000000102030405480611241FBECFEFD8E009
:10021000DEBFCDBF22E0A6E4B1E001C01D92A23551
:10022000B207E1F711E0A0E0B1E0E6E5F4E102C0D9
:1002300005900D92A634B107D9F711E0C4E0D1E0E2
:1002400004C02197FE010E941B0AC330D107C9F7E1
:100250000E94A8060C94290A0C940000E5E5F1E040
:10026000A089B18982E08C93A485B5851C92A6856E
:10027000B78580E18C93108EA489B58986E08C9334
:10028000A289B3898C9180618C93A289B3898C9166
:1002900088608C93A289B3898C9180688C93028842
:1002A000F389E02D80818F7D8083089590E0FC01AB
:1002B000E052FE4F249184539E4FFC018491882389
:1002C00099F090E0880F991FFC01EE53FE4FA59125
:1002D000B491FC01E854FE4F859194918FB7F89446
:1002E000EC91E22BEC938FBF0895AF92BF92CF9227
:1002F000DF92EF92FF920F931F93CF93DF936C01E6
:100300007B018B01040F151FEB015E01AE18BF08C6
:10031000C017D10759F06991D601ED91FC91019078
:10032000F081E02DC6010995892B79F7C501DF9190
:10033000CF911F910F91FF90EF90DF90CF90BF90E2
:10034000AF900895FC01538D448D252F30E0842F0C
:1003500090E0821B930B541710F0CF9608950197ED
:100360000895FC01918D828D981761F0A28DAE0FDA
:10037000BF2FB11D5D968C91928D9F5F9F73928F61
:1003800090E008958FEF9FEF0895FC01918D828D8D
:10039000981731F0828DE80FF11D858D90E008955A
:1003A0008FEF9FEF0895FC01918D228D892F90E0B2
:1003B000805C9F4F821B91098F739927089585E573
:1003C00091E00E94D30121E0892B09F420E0822FE3
:1003D000089580E090E0892B29F00E94DF018111CF
:1003E0000C9400000895FC01A48DA80FB92FB11D35
:1003F000A35ABF4F2C91848D90E001968F7399275B
:10040000848FA689B7892C93A089B1898C91837038
:1004100080648C93938D848D981306C00288F38931
:10042000E02D80818F7D80830895EF92FF920F935E
:100430001F93CF93DF93EC0181E0888F9B8D8C8D90
:1004400098131AC0E889F989808185FF15C09FB784
:10045000F894EE89FF896083E889F9898081837047
:10046000806480839FBF81E090E0DF91CF911F91F6
:100470000F91FF90EF900895F62E0B8D10E00F5F17
:100480001F4F0F731127E02E8C8D8E110CC00FB6ED
:1004900007FCFACFE889F989808185FFF5CFCE0185
:1004A0000E94F301F1CFEB8DEC0FFD2FF11DE35A0C
:1004B000FF4FF0829FB7F8940B8FEA89FB89808108
:1004C0008062CFCF0F931F93CF93DF938C01D0E047
:1004D000C0E0F801EC0FFD1F6491662341F085E553
:1004E00091E00E941502892B11F02196F2CFCE01E6
:1004F000DF91CF911F910F910895CF93DF93EC017E
:10050000888D8823B9F0AA89BB89E889F9898C91FB
:1005100085FD03C0808186FD0DC00FB607FCF7CFB7
:100520008C9185FFF2CF808185FFEDCFCE010E94B7
:10053000F301E9CFDF91CF91089590E0FC01E859F4
:10054000FF4F2491FC01E052FE4F3491FC01E45333
:10055000FE4FE491EE23C9F0222339F0233001F15C
:10056000A8F4213019F1223029F1F0E0EE0FFF1F3D
:10057000E854FE4FA591B4918FB7F894EC916111B6
:1005800026C030953E233C938FBF08952730A9F0B5
:100590002830C9F0243049F7809180008F7D03C056
:1005A000809180008F7780938000DFCF84B58F7734
:1005B00084BDDBCF84B58F7DFBCF8091B0008F777A
:1005C0008093B000D2CF8091B0008F7DF9CF3E2BC9
:1005D000DACF209138023091390240913A0250919D
:1005E0003B022417350721F0682F822F0C949D02BF
:1005F00008958230910538F0880F991F880F991F50
:1006000005970197F1F70895CF93DF93C8E3D2E000
:10061000682F8A810E949D028E899F89DF91CF91E8
:100620000C94F90281E00C9404033FB7F894809194
:100630004B0190914C01A0914D01B0914E0126B516
:10064000A89B05C02F3F19F00196A11DB11D3FBF0A
:10065000BA2FA92F982F8827BC01CD01620F711DD9
:10066000811D911D42E0660F771F881F991F4A95D3
:10067000D1F708958F929F92AF92BF92CF92DF925F
:10068000EF92FF924B015C010E9415036B017C010C
:100690000E9415036C197D098E099F09683E7340FD
:1006A00081059105A8F321E0821A9108A108B108FB
:1006B00088EEC80E83E0D81EE11CF11C8114910461
:1006C000A104B10429F7FF90EF90DF90CF90BF9085
:1006D000AF909F908F9008952FB7F8946091470145
:1006E000709148018091490190914A012FBF08956E
:1006F0008EBD00000DB407FEFDCF8EB508950F939B
:100700001F9300913C0210913D0220913E023091D6
:100710003F0240E052E16AE770E080E0041715070D
:100720002607370740F476956795579547958F5F6D
:100730008630A1F787E0982F906A96958095817012
:100740009CBD8DBD80E01F910F910C940403CF934D
:100750000E947F0381EE0E947803C82F0E9412033B
:100760008C2FCF910895CF93C82F0E947F038C2F99
:100770000E9478038FEF0E947803C82F0E94120313
:100780008C2FCF910895CF93DF93C82FD62F0E943F
:100790007F038C2F8F7180620E947803C82F8D2F6A
:1007A0000E9478030E9412038C2FDF91CF9108954D
:1007B00080E00E94B30381FD0BC0682F626080E07F
:1007C0000E94C30365E070E080E090E00C943A037F
:1007D000089580E00E94E90280914A0290914B02C4
:1007E0000E94F9028DE10E94B30381FF08C080914D
:1007F0004A0290914B020E94F9020E94A70380E0F6
:100800000E94B303682F6E7F80E00E94C30382E0E2
:100810000E94B303E0E0F2E0E49161E070E001C027
:10082000660FEA95EAF7682B82E00C94C303EF9217
:10083000FF920F931F93CF93DF93C82F7B01142F49
:100840000E947F038C2F8F7180620E947803082F93
:10085000E701115020F089910E947803FACF0E949D
:100860001203802FDF91CF911F910F91FF90EF9096
:1008700008950E94D80380E00E94B303682F61604E
:1008800080E00E94C30360E787E00E94C30381E029
:100890000E94E90280914302882371F0409148024E
:1008A00063E472E08AE00E9417048DE10E94B303C2
:1008B00081FF15C00C94A70382E00E94B303E0E01F
:1008C000F2E0E49121E030E001C0220FEA95EAF77E
:1008D0002095622F682382E00E94C303E6CF08952B
:1008E0000F931F93CF93DF938C01C8E3D2E0488925
:1008F000BC018AE00E9417044889B80180E10E9487
:100900001704698581E1DF91CF911F910F910C94BC
:10091000C303CF92DF92EF92FF920F931F93CF9377
:10092000DF937C01C0914102DC2FC53008F0D4E098
:1009300080914202CD1B8111C0E00E947F0380EABA
:100940000E9478038701D15030F0F80181918F0126
:100950000E947803F8CFC15020F080E00E94780315
:10096000FACF0E94120381E00E94E9020E946C0308
:100970006B017C010E947F038FEF0E947803C82FD8
:100980000E941203C073C1F40E946C036C197D09AC
:100990008E099F09603671058105910558F381E044
:1009A0008093490280E0DF91CF911F910F91FF90DA
:1009B000EF90DF90CF90089580E00E94E90260E719
:1009C00087E00E94C30384FF03C00E94A703EACF0D
:1009D00081E0E9CFEF92FF920F931F93CF93DF93C4
:1009E0007C01C0914102DC2FC43008F0D4E080913A
:1009F0004202CD1B8111C0E00E947F0381E60E946C
:100A000078038701D15038F08FEF0E947803F80106
:100A100081938F01F7CFC15020F08FEF0E947803B0
:100A2000FACF0E94120360E787E0DF91CF911F9118
:100A30000F91FF90EF900C94C303CF93DF93EBEFF4
:100A4000F1E0E491C8E3D2E04889BC018E2F0E9416
:100A50001704E5EFF1E0849169850E94C30382E009
:100A60000E94B303E1E0F2E0E49161E070E001C0D4
:100A7000660FEA95EAF7682B82E0DF91CF910C943C
:100A8000C30387E10E94B303809581700895FC0140
:100A900001900020E9F73197AF01481B590BBC01C9
:100AA00085E591E00C947501CF93DF930E9462027B
:100AB000EC018EE191E00E9447058C0F9D1FDF91B4
:100AC000CF9108958F929F92AF92BF920F931F93F1
:100AD000CF93DF93CDB7DEB7A1970FB6F894DEBF03
:100AE0000FBECDBF19A2423008F44AE08E010F5D5F
:100AF0001F4F842E912CB12CA12CA50194010E9492
:100B0000F909E62FB901CA01EA30F4F4E05DD80131
:100B1000EE938D01232B242B252B79F790E080E099
:100B2000109719F0CD010E944705A1960FB6F894D1
:100B3000DEBF0FBECDBFDF91CF911F910F91BF9050
:100B4000AF909F908F900895E95CE1CF1F920F9234
:100B50000FB60F9211242F933F934F935F936F9390
:100B60007F938F939F93AF93BF93EF93FF9385E50D
:100B700091E00E94F301FF91EF91BF91AF919F919E
:100B80008F917F916F915F914F913F912F910F9036
:100B90000FBE0F901F9018951F920F920FB60F92D5
:100BA00011242F938F939F93EF93FF93E09165010F
:100BB000F09166018081E0916B01F0916C0182FD02
:100BC0001BC0908180916E018F5F8F7320916F01A8
:100BD000821741F0E0916E01F0E0EB5AFE4F958FE5
:100BE00080936E01FF91EF919F918F912F910F90C4
:100BF0000FBE0F901F9018958081F4CF1F920F9217
:100C00000FB60F9211242F933F938F939F93AF931F
:100C1000BF938091470190914801A0914901B09103
:100C20004A013091460123E0230F2D3758F50196F4
:100C3000A11DB11D20934601809347019093480167
:100C4000A0934901B0934A0180914B0190914C01CE
:100C5000A0914D01B0914E010196A11DB11D80934F
:100C60004B0190934C01A0934D01B0934E01BF9165
:100C7000AF919F918F913F912F910F900FBE0F9049
:100C80001F90189526E8230F0296A11DB11DD2CF03
:100C9000E5E5F1E01382128288EE93E0A0E0B0E097
:100CA00084839583A683B78380E191E091838083D9
:100CB00085EC90E09587848784EC90E09787868721
:100CC00080EC90E0918B808B81EC90E0938B828B19
:100CD00082EC90E0958B848B86EC90E0978B868BF2
:100CE000118E128E138E148EE2EFF1E016821782AF
:100CF0001086118612861386148615861686178628
:100D0000108A118A128A138A148A158AE8E3F2E09B
:100D100087E090E09183808388E090E093838283F2
:100D200080E896E9A8E9B0E084839583A683B78339
:100D3000108680E28187128685E0808B85E090E0D6
:100D4000A0E0B0E0868B978BA08FB18F13860895BB
:100D5000CF93DF93CDB7DEB728970FB6F894DEBFF9
:100D60000FBECDBF789484B5826084BD84B58160A8
:100D700084BD85B5826085BD85B5816085BD809166
:100D80006E00816080936E001092810080918100DE
:100D900082608093810080918100816080938100D6
:100DA000809180008160809380008091B100846098
:100DB0008093B1008091B00081608093B0008091F9
:100DC0007A00846080937A0080917A0082608093B8
:100DD0007A0080917A00816080937A0080917A0015
:100DE000806880937A001092C100109234021092B1
:100DF000350210923602109237021092F4011092CE
:100E0000F5011092F6011092F7010E946C036B013C
:100E10007C014B015C0128EB820E2BE0921EA11C91
:100E2000B11C0E946C036C157D058E059F0528F092
:100E300086169706A806B906A0F768EE73E080E06C
:100E400090E00E943A030E942E010E946C0360937E
:100E5000F4017093F5018093F6019093F70181E21C
:100E600091E00E9447050E946C036B017C014B01DD
:100E70005C013AE0830E911CA11CB11C0E946C0322
:100E80006C157D058E059F0528F086169706A80629
:100E9000B906A0F781E0809308020E942E0182EB40
:100EA00090E00E9454058CE790E00E9454058091E8
:100EB00038029091390220913A0230913B02821718
:100EC000930711F00E94560180913A0290913B02E3
:100ED00020913802309139022817390711F00E9409
:100EE00056011FB7F89480914F01811124C0E6ED9F
:100EF000F1E08491EAEEF1E09491E82FF0E0EE0F5A
:100F0000FF1FEE53FE4FA591B491EC91E92321F41C
:100F100061E08AE00E949D028AE00E9456018CB541
:100F200080618CBD8CB580648CBD8DE00E945601C3
:100F30008BE00E94560180914F018F5F80934F019B
:100F40001FBF80E00E94E90281E00E94040365E087
:100F500070E080E090E00E943A036CE080E00E9444
:100F6000C3036FE584E00E94C30386E00E94B303DD
:100F7000877D182F10628BE990E0A0E0B0E08093AD
:100F80004A0290934B02A0934C02B0934D02612F02
:100F900086E00E94C30386E00E94B303181303C0D7
:100FA00081E08093400286E00E94B30386E00E94C5
:100FB000B30345E550E060E070E040934A0250938F
:100FC0004B0260934C0270934D02682F677D86E060
:100FD0000E94C30386E00E94B3030E947F0380E562
:100FE0000E94780383E70E9478030E94120360E066
:100FF0008DE10E94C30360E08CE10E94C303109264
:10100000420260E787E00E94C3036CE485E00E942F
:10101000C3030E947F0382EE0E9478030E941203A2
:101020000E94A7030E94D80380E00E94B303682FA8
:101030006E7F80E00E94C30386E00E94B303887F36
:10104000682F636086E00E94C30380E091E00E9405
:10105000700486E091E00E941D050E94390400E0C2
:1010600010E084EF882E99249394A12CB12C332482
:1010700033940E946C03672B682B692B09F4E0C042
:101080000E946C03C0905101D0905201E090530136
:10109000F09054016C157D058E059F0508F422C162
:1010A000C0905101D0905201E0905301F090540152
:1010B0009B01AC012C193D094E095F0969017A01B8
:1010C0003AEFC316D104E104F10408F4C1C06093FF
:1010D0005101709352018093530190935401809277
:1010E000000290920102A0920202B09203021092BA
:1010F00004021092050210920602109207028091DB
:10110000F8019091F901A091FA01B091FB0180934F
:10111000FC019093FD01A093FE01B093FF010E949A
:101120006C036093F8017093F9018093FA01909336
:10113000FB010E946C036093F4017093F5018093AE
:10114000F6019093F7010E946C036B017C0182E32E
:1011500091E00E9447054AE061E070E080E090E0A5
:101160000E94620589E391E00E9447054AE0C701B9
:10117000B6010E9462058BE391E00E9447058091D1
:10118000F8019091F901A091FA01B091FB01A7013A
:101190009601281B390B4A0B5B0BCA01B9014AE0C7
:1011A0000E9462058BE391E00E9447056091F8017F
:1011B0007091F9018091FA019091FB01C090FC01BE
:1011C000D090FD01E090FE01F090FF016C197D09C7
:1011D0008E099F094AE00E9462058DE391E00E941A
:1011E00047050E946C034AE00E9462058FE391E08C
:1011F0000E9447058EE191E00E9447050E946C0322
:101200002B013C017C016B0135E0C30ED11CE11CBC
:10121000F11C0E946C03641575058605970528F07E
:10122000C616D706E806F906A0F70E946C0360937D
:10123000F8017093F9018093FA019093FB0108C0C3
:101240000E946C03623071058105910508F018CF8A
:10125000809150018823A9F10E94E9038CEA91E072
:101260000E9454050E9415036D837E838F839887A7
:10127000CE0105960E948904811104C085EA91E09F
:101280000E9454050E9439040E9415036B017C01E1
:101290000E944105811179C00E9415036C197D09D6
:1012A0008E099F0961347D408340910588F389E868
:1012B00091E00E94540568EE73E080E090E00E94A7
:1012C0003A038091500181112DC00E94410588236D
:1012D00049F10E944105882371F0CE0101960E94D8
:1012E000EA04F7CF60935101709352018093530148
:1012F00090935401D5CE0E94E903CE0101960E943D
:1013000089040E94390482E491E00E9462026981AA
:101310007A818B819C814AE00E9462058EE191E096
:101320000E94470585E591E00E94D301892B91F049
:1013300085E591E00E94B1010E94210A8435B1F453
:1013400080915001811106C088E091E00E9454050F
:10135000309250010115110509F48BCE0E94DF0176
:10136000882309F486CE0E94000083CE823591F74F
:1013700080915001882371F38FEC90E00E94540516
:10138000109250010E943904E5CFCE0101960E94CF
:10139000EA040E9415036B017C0183E891E00E943E
:1013A00062026D817E818F8198854AE00E9462058C
:1013B00083E791E00E94620269817A818B819C813E
:1013C0004AE00E9462058FE591E00E9462028D81F1
:1013D0009E81AF81B885A7019601281B390B4A0B66
:1013E0005B0BCA01B9014AE00E94620581E591E008
:1013F00060CFA1E21A2EAA1BBB1BFD010DC0AA1FC4
:10140000BB1FEE1FFF1FA217B307E407F50720F06D
:10141000A21BB30BE40BF50B661F771F881F991FE8
:101420001A9469F760957095809590959B01AC0131
:10143000BD01CF010895EE0FFF1F0590F491E02D3F
:1014400009949111089581568A5108F48052855863
:061450000895F894FFCF9F
:10145600314E6F646500324E6F6465000000000017
:1014660015027501A2017D02D301B101C5010D0A64
:1014760000564D4450565F317C315F564D445056B0
:101486000A00564D4450455F003A323A007C005FF0
:06149600564D44504500D4
:00000001FF
